:020000040800F2
:10000000C0130020D9020008B94C000801480008BC
:10001000B54C000849170008795700080000000097
:10002000000000000000000000000000714E000809
:100030004D17000800000000054D00081D51000884
:10004000F3020008F3020008F3020008F3020008BC
:10005000F3020008F3020008F3020008F3020008AC
:10006000F3020008F3020008F3020008F30200089C
:10007000F3020008F3020008F3020008F30200088C
:10008000F3020008F3020008F3020008F30200087C
:10009000F3020008F3020008F302000851170008F9
:1000A00035510008F3020008F3020008555100081A
:1000B000615100080000000000000000F302000889
:1000C000F3020008F3020008F3020008F30200083C
:1000D000F3020008F3020008F3020008F30200082C
:1000E000F3020008F3020008000000000000000016
:1000F0000000000000000000000000000000000000
:1001000000000000F302000800000000F3020008F5
:100110000000000000000000F3020008F3020008E5
:10012000F3020008F3020008F3020008F3020008DB
:10013000F3020008000000000000000000000000C2
:10014000F3020008F3020008F302000800000000B8
:10015000F3020008F3020008F3020008F3020008AB
:10016000F3020008F3020008F30200080000000098
:10017000F3020008F3020008000000000000000085
:10018000F3020008F3020008F302000800F002F88E
:1001900000F092F80AA090E8000C82448344AAF18F
:1001A0000107DA4501D100F087F8AFF2090EBAE88D
:1001B0000F0013F0010F18BFFB1A43F0010318479B
:1001C000EC7500000C760000103A24BF78C878C1A6
:1001D000FAD8520724BF30C830C144BF04680C604D
:1001E000704700000023002400250026103A28BF95
:1001F00078C1FBD8520728BF30C148BF0B60704799
:100200006E2900F0EF81702900F03D83662907F028
:100210007081652907F06D81672907F06A8161297E
:1002200007F0698103681B0A28BF41F08001692932
:1002300000F09C81642900F09981752900F0968175
:100240006F2900F0CB82782900F00983E92900F0BA
:100250006582E42900F06282F52900F05F82EF29CF
:1002600000F0C882F82900F008830368DB0928BF82
:1002700041F08001632901F01880732901F01D808D
:10028000E32901F02880F32901F02D800020704738
:100290001FB507F01CF901F081F8040000200021CF
:1002A00006F0FCFB401C60600020002106F0E0FB33
:1002B000E0601FBD10B510BD01F042F81146FFF718
:1002C000E7FF05F07DFA01F01FF903B4FFF7F2FF35
:1002D00003BC01F063F90000094880470948004762
:1002E000FEE7FEE7FEE7FEE7FEE7FEE7FEE7FEE7E6
:1002F000FEE7FEE704480549054A064B7047000043
:10030000215100088D010008C00D0020C0130020FD
:10031000C00F0020C00F002053EA020C00F06980DB
:100320002DE9F04B4FF00006002B1FBFB3FA83F509
:1003300003FA05F424FA05F65E4012BF1643B2FA3A
:1003400082F502FA05F4C5F120051EBF22FA05FC6C
:1003500044EA0C04203556EA044C4FEA144418BF12
:10036000641C4FF000084FF00009904271EB030C41
:1003700039D3002919BFB1FA81F701FA07F6B0FAAB
:1003800080F700FA07F6C7F120071EBF20FA07FC26
:1003900046EA0C062037B6FBF4FCA7EB0507103F36
:1003A00007F01F0BCBF120062CFA06F60CFA0BFB1C
:1003B00044BFB3460026202FA4BF5E464FF0000B7B
:1003C0005BEA060C08BF4FF0010B19EB0B0948EB79
:1003D0000608ABFB027C06FB02CC0BFB03CCC01B6C
:1003E00071EB0C01C1E70B46024641464846BDE8A9
:1003F000F08B13B5084318BF4FF0FF300146AFF341
:100400000080BDE81C4070477CB51D4616460C00B8
:10041000009001D02044401E074B7B442A46694689
:100420000190304600F0F7F805461CB100206946FF
:1004300000F004F928467CBD290200004FF00002BC
:1004400000B5134694469646203922BFA0E80C50CA
:10045000A0E80C50B1F12001BFF4F7AF090728BFA5
:10046000A0E80C5048BF0CC05DF804EB890028BF21
:1004700040F8042B08BF704748BF20F8022B11F04A
:10048000804F18BF00F8012B7047704770477047C6
:1004900010B500F0CBFA006810BD10B5044600F0AE
:1004A000C5FA046010BD70B5044685690068C106D0
:1004B00001D5302600E02026C00707D070BDD4E962
:1004C000012130469047206A401C20626D1EF6D5FF
:1004D00070BD70B5044685690078C00707D170BD4E
:1004E000D4E9012120209047206A401C20626D1E23
:1004F000F6D570BD09684A0501D540B27047C905F7
:10050000FCD500B2704709684A0501D5C0B27047F2
:10051000C905FCD580B2704770B50C460546012A66
:1005200005D02878800600D5EA69002302E001237F
:1005300005E05B1C934202D2E05C0028F9D1A86977
:10054000E618C01AA861286A184428622846FFF7EE
:10055000AAFF04E0D5E9012114F8010B9047B44249
:10056000F8D32846FFF7B5FF70BD00002DE9F04134
:100570000646002410687529314616A510D0FFF7ED
:10058000B9FF002802DA404213A507E031688A0764
:1005900001D512A502E0490704D511A5012401E007
:1005A000FFF7B1FF00210A2206F1240709E0B0FBA2
:1005B000F2FCB0FBF2F302FB1C003030785418461A
:1005C000491C0028F3D123462A463046BDE8F041B5
:1005D00000F075BA000000002D0000002B000000A4
:1005E0002000000011680268006A530501D50870F8
:1005F0000AE0D30501D5088006E0130603D5C2172B
:10060000C1E9000200E008600120704701694A1C4E
:1006100002610878704700B58FB0CDE90131002143
:10062000059105497944CDE903101146684600F06B
:1006300035F90FB000BD0000E5FFFFFF0A6802F8C2
:10064000010B0A607047D1E900239A4202D2531C81
:100650000B601070704700002DE9FF5F15468A4659
:100660000446DFF8AC80F8440027D8E900103E4685
:10067000CDE9001010E03AF816106A4602A800F022
:1006800036FE411C07D02178890603D5E269391866
:1006900091420DD80744761C2078800602D5E06987
:1006A000B84205DDAE42E6DB3AF816000028E2D19A
:1006B000A069C01BA0612046FFF7F5FED8E9001035
:1006C000CDE90010002017E03AF818106A4602A899
:1006D00000F00DFEB0F1FF3F81460BD000250DF17B
:1006E000080B05E0D4E901211BF8050090476D1CBB
:1006F0004D45F7D308F10100B0428046E4DB206AA3
:10070000384420622046FFF7E4FE00F003B8000002
:10071000926E00003FBCBDE8C09F00002DE9F04193
:100720008046D21D22F007020025D2E90002F529F9
:1007300015A614D0011E72F1000106DA0023D0EBD9
:10074000030063EB020211A608E0D8F800108B0743
:1007500001D50FA602E0490701D50EA601251146D5
:10076000002408F1240704E000F064F930323A551F
:10077000641C50EA0102F7D12B463246214640461E
:10078000BDE8F04100F09BB9000000002D00000022
:100790002B0000002000000030B4002100F12404F0
:1007A00008E002F00705D208303542EA4372DB0860
:1007B0006554491C52EA0305F3D10468002310A2D2
:1007C000250708D504F020040C4304D0C469012394
:1007D0000CA2641EC46130BC00F071B910B50446AF
:1007E00021461068FFF78FFE02462046BDE8104004
:1007F0000023D1E7D21D22F00701D1E90023CBE786
:100800000000000030000000F0B40D46018809052A
:1008100002D5214C7C4402E01F4C7C440E34002164
:1008200000F1240608E002F00F071209E75D42EA32
:1008300003721B097754491C52EA0307F3D102786B
:100840000023120704D5702D06D009B102231134FC
:100850002246F0BC00F033B901231034F8E770B53C
:1008600004460D4621461068FFF74DFE0246294614
:100870002046BDE870400023C6E7D21D22F00703E2
:10088000D3E90023C0E70368126843F02003036044
:100890000823C3610023B7E7EC6C00002DE9F05F8B
:1008A000894604464FF0000ADFF874B1FB44C0F8F3
:1008B00020A02046E1688847002874D0252806D06B
:1008C000D4E901219047206A401C2062F1E700260C
:1008D0005F462046E16888472028054607DB312D22
:1008E00005D2781910F8200C08B10643F1E7B007DB
:1008F00001D526F00406C4F81CA00027C4F818A0EF
:100900002A2D09D0284606F09FF838B304EB870853
:10091000303DC8F8185019E059F8041B204604EB84
:1009200087029161E1688847012F054618D1E06987
:10093000002820DA26F020061DE0D8F8180000EB89
:10094000800005EB40003038C8F818002046E16808
:100950008847054606F078F80028EED1012F0AD026
:100960002E2D08D12046E16888477F1C0546022FBE
:1009700046F02006C4DBA069002803DA404246F0B6
:100980000106A061F00701D026F010066C2D0BD0F7
:10099000682D09D04C2D39D06A2D35D0742D35D025
:1009A0007A2D33D016E038E0E1682F46204688479C
:1009B000B842054609D16C2F26D04FF48060E1681B
:1009C000064320468847054604E06C2F1AD04FF4B2
:1009D000807006430DB3A5F14100192802D82035D7
:1009E00046F400664A462946204626604E46FFF7F2
:1009F00007FC80B101280BD0F61D26F0070000F19E
:100A0000080956E74020E4E78020D8E70020D6E731
:100A100006F104094DE7284652E7206A00F002B8C3
:100A20007C6C000030BCBDE8C09F000000487047EF
:100A30001000002030B5B0F10A0271F100034FEA56
:100A4000900E4EEA817EB0EB0E0061EB91014FEA11
:100A5000101E4EEA017E10EB0E0041EB11114FEA21
:100A6000102E4EEA016E10EB0E0041EB11214FEA01
:100A7000104E4EEA014E10EB0E0041EB11414018B2
:100A800041F100014FEAD00040EA41704FEAD10144
:100A90004FEA810444EA907410EB800544EB0104B2
:100AA0006D1944EB0404521BA3414FF0000348BFEF
:100AB0000A3200D530BD401C41F1000130BD2DE9A6
:100AC000F0470D4699469246044600F12408016815
:100AD000880604D5E06921F01001216000E00120C2
:100AE000A84201DD471B00E00027A1697A1902EB4B
:100AF0000900081AA0612078C00602D42046FFF73A
:100B0000D2FC002608E0D4E901211AF8060090473B
:100B1000206A401C761C20624E45F4DB2078C0061B
:100B20000AD52046FFF7BFFC06E0D4E901213020BA
:100B30009047206A401C2062381EA7F10107F4DCB0
:100B400007E0D4E9012118F805009047206A401C0D
:100B50002062281EA5F10105F3DC2046FFF7B9FC51
:100B60002078000602D50220BDE8F0870120FBE7CF
:100B70002DE9FF4F0C461E464FF0FF378BB0D2E9F0
:100B80000001DDF860800A908A46C1F30A5505B974
:100B90003D46002108464FF00000BAF1000F00F476
:100BA000400005DA00EB80004FF4400101EA5000FC
:100BB0004FEA9059B9F1010F00DDB9460A9850EAA1
:100BC0004A000ED044F61050A5F2FF3545432F14CD
:100BD000B8F1000F1ED07542291E1EDDC9F10002BA
:100BE0001CE0B8F1010F4FF0000001D0302103E00C
:100BF000F24305E02154401CB042FBDB30460022AA
:100C0000002121540B99C1F80880C1E900200FB0E0
:100C100000F0BCB9BD1B6D1CDEE74A4600DA694234
:100C200006A800F0FFFB06AB93E8070003AB83E8E0
:100C3000070050460A9904F09FFE8DE80700A0F5D2
:100C400000501F3800900398002D0ADD42F21F016A
:100C50004A460844002303A90390684605F008F9B2
:100C600009E0A0F500504A461F38002303A903906D
:100C7000684605F012F98DE807000004000C03D067
:100C80004FF0FF30410800E01046B8F1000F03D0EC
:100C90000022009215461EE0751E05D4FFF7CAFE1D
:100CA000303262556D1EF9D5B3460122084302D099
:100CB00000227F1C04E02078302801D100227F1E12
:100CC000002A099784D01DE0112D07DAFFF7B2FE44
:100CD000303262556D1C50EA0102F5D1084302D052
:100CE0000098C8B10EE00021681E05E0235C625C3C
:100CF00063542254401E491C8142F7DBAB46A81BBB
:100D0000401E0990002004F80B000B98099AC0F8C7
:100D10000880C0E9002B7AE711264FF0000857E75A
:100D20002DE9F04F88460446D21D22F0070191B00C
:100D3000D1E90001CDE90A0105F0E6F902460B9878
:100D4000C00F01D02D2007E02068810701D52B209E
:100D500002E0202101EAC000032A099001D0072AFD
:100D600005DB03464146204600F01CFB0BE12078E2
:100D7000800601D5E06900E00620B8F1650F8146E4
:100D800006D0B8F1660F18D0B8F1670F70D131E016
:100D90000020B9F1110F009001DB112301E009F1EE
:100DA00001030AAA01A90CA8FFF7E2FEDDE90C7015
:100DB000002609F10105834647E001204B460090DB
:100DC0004FF000470AAA01A90CA8FFF7D1FEDDE900
:100DD0000DB00C995D46002610B909F101000D18FF
:100DE000B9EB050003D4C0F1FF3609F10105A5EB0D
:100DF00009002BE0B9F1010F01DA4FF001090020E1
:100E0000B9F1110F0090484601DD112300E00346BF
:100E10000AAA01A90CA8FFF7ABFEDDE90C704D464C
:100E200000268346207800070AD4AB4500DA5D46E9
:100E300001A8012D04DD411911F8011C302907D04A
:100E40004F4502DA17F1040F04DA012082460FE061
:100E50006D1EEEE7002F02DCED1B3E4403E0781C24
:100E6000A84200DD7D1CB81B00F1010A4FF00047CD
:100E70002078000703D4AA4501DB4FF0FF3A002198
:100E8000B7F1004F0DF143088DF8431024D0022034
:100E90002B23002F01DA7F422D230A21021EA0F10D
:100EA000010000DC5FB197FBF1FC97FBF1F201FB65
:100EB0001C7C17460CF1300C08F801CDEEE7A8F1C8
:100EC000010003702188090501D5452100E0652155
:100ED000A0F1010800F8011C09980FA9A1EB08076F
:100EE000FF1D00B10120411901EBEA70A1693844EE
:100EF000081A401EA0612078C00602D42046FFF7E1
:100F0000D2FA099828B1D4E901219047206A401CFF
:100F100020622078C00622D52046FFF7C4FA1EE0E2
:100F2000002E04DBB34502DD01A8805D00E0302027
:100F3000D4E901219047206A401C2062761CAAF166
:100F400001005FEA000A0AD100F028FAC0680168CF
:100F5000405CD4E901219047206A401C2062281E91
:100F6000A5F10105DCDC07E0D4E9012118F8010B4B
:100F70009047206A401C2062381EA7F10107F3DC6D
:100F80002046FFF7A6FA032011B041E630BCBDE8C9
:100F9000C08F00002DE9F04F04460D46D21D22F00F
:100FA000070089B0D0E900974846394605F0ACF80B
:100FB0000246F80F01D02D2307E02068810701D5F4
:100FC0002B2302E0202101EAC0038DF820300BB171
:100FD000012000E00020032A824601D0072A04DB1A
:100FE0002946204600F0DEF93FE12078800601D452
:100FF0000D2500E0E569C7F30A560D2D49DA0021F9
:101000004FEA175B08464FF00000002F00F4400045
:1010100007DA00EB80004FF4400100EBD07001EAEA
:1010200060008115012901DD4FF0FF3100224FEAF8
:10103000850CBCF1180F06D31346ACF118004FF025
:101040008052C24003E04FF4801323FA0CF30CF1FA
:101050000C0CBCF1200F04D3ACF1200C09FA0CF0FD
:1010600001E007FA0CF000294FF0004801DD18B943
:101070000FE00ED140450CD319EB02095F4121B9B5
:10108000404502D19F4329EA0209BBEB175F00D01C
:10109000761C2088000502D57B48784402E07A4817
:1010A0007844193808AA302302F80A30037C0AF180
:1010B0000101002E0AF1020A53546A4602DC4FF085
:1010C000300101E04FF031014FF001088DF80010C0
:1010D00002D0A6F2FF3603E059EA470100D06B4E7A
:1010E000002D02DC2178090704D54FF002082E21DB
:1010F0008DF80110C44600210BE0C7F303433F0104
:10110000C35C491C6D1E02F80830052908F101086E
:1011100001DA002DF1DC00210CE000EB1973491C11
:101120001B786D1E082902F808304FEA091908F1EA
:10113000010801DA002DF0DC21688B0602D516E0EB
:10114000A8F10108E04505DD02EB080313F8013CB6
:10115000302BF5D0B8F1000F09DD02EB080313F8CE
:10116000013C2E2B03D1090701D4A8F10108002D61
:1011700005DD3E2102F808106D1E08F10108407CD3
:10118000002E02F8080008F1010804DA2D2076424A
:1011900002F8080002E02B2002F808000A214FF4B0
:1011A0007A70864208F101080BDB96FBF0F33033CE
:1011B00002F8083096FBF0F308F1010800FB136613
:1011C00001E0642E0CDB642096FBF0F3303302F870
:1011D000083096FBF0F308F1010800FB136601E00C
:1011E0000A2E06DB96FBF1F0303002F8080008F119
:1011F000010896FBF1F001FB1060303002F80800A6
:10120000A16908F1010808EB050202EB0A00081ABF
:10121000A0612078C00602D42046FFF744F9216A75
:1012200008AE01EB0A00206204E0D4E9012116F8BF
:10123000010B9047BAF1010AF7D22078C00602D517
:101240002046FFF730F96E4609E016F8010B3E28FC
:101250000FD0D4E901219047206A401C2062B8F1E8
:101260000108F2D22046FFF734F909B0032000F05C
:101270000FB8206A2844206203E0D4E9012130201D
:1012800090476D1EEBD3F8E7DD65000002FCFFFF21
:1012900030BCBDE8C08F10B5436913B1AFF3008017
:1012A00001E0FFF739F9012010BD127800F12401A7
:1012B0000A7000224A700122EDE711684FF0FF32F8
:1012C000E9E710B5436913B1AFF3008001E0FFF720
:1012D000C3F9012010BD128800F12401828400228C
:1012E000C2840122EDE711684FF0FF32E9E72DE9F2
:1012F000F04116460C46054600F048F8036893F89E
:101300000101012807D0FF2C12D8185D80B10120FF
:101310002C70BDE8F081D3F807013246214603F274
:101320000713C7182846BC46BDE8F04100236047B4
:101330004FF0FF30EDE7000000487047100000203C
:101340007546FFF7F9FFAE4605006946534620F0A3
:101350000700854618B020B5FEF7CCFFBDE8204059
:101360004FF000064FF000074FF000084FF0000B61
:10137000AC46ACE8C009ACE8C009ACE8C009ACE8D0
:10138000C00921F007018D467047000010B500F03C
:1013900005F8001D10BD00BF05570000004870474C
:1013A000300000202DE9F0411F4604460326016865
:1013B000072A01F4006004DB08B116A505E016A5B4
:1013C00003E008B115A500E015A521F0100020608C
:1013D000A069C01EA0610FB1401EA0612046FFF7AA
:1013E00062F84FB1D4E9012138469047206A401C89
:1013F0002062C01C206206E0206AFAE7D4E90121DD
:1014000015F8010B9047761EF8D22046FFF761F8D9
:10141000BDE8F0814E414E006E616E00494E4600BF
:10142000696E66002DE9F047814616468AB0354858
:1014300078440DC88DE80D0032487844801C03AC18
:101440000DC884E80D0041F69B300844372190FB1D
:10145000F1F290FBF1F5A5F1800501FB12041B3CB4
:1014600002D56442012000E00020DFF898A0804609
:101470000027FA44AAF1BE0A0EE0E0070AD032467D
:10148000684607EB470101230AEB810104F005FDE3
:101490008DE8070064107F1C002CEED1194F7F44AB
:1014A000AE3F19E0E80715D007EB04100DF1180A5C
:1014B00090E80E008AE80E00C068F04201D1981949
:1014C00008903246012306A903A804F0E6FC03AB0A
:1014D00083E807006D10641C002DE3D14FF0010379
:1014E00032466946B8F1000F03A802D004F0C0FCF0
:1014F00001E004F0D2FCC9E90001C9F808200AB0F3
:10150000BDE8F087D862000010B50446AFF3008054
:101510002046BDE81040FEF7D8BE000000000000E5
:1015200030B44FF0013C50F8042B51F8043BCCFA96
:1015300052F4D51A20D1FCB950F8042B51F8043BD1
:10154000CCFA52F4D51A17D1B4B950F8042B51F88B
:10155000043BCCFA52F4D51A0ED16CB950F8042BD6
:1015600051F8043BCCFA52F4D51A05D1002CDAD04C
:1015700030BC4FF00000704729BAB1FA81F111F088
:101580001801D1F120008440F2D1CA40CB4012F0C2
:10159000FF0213F0FF0330BCD01A70470149182036
:1015A000ABBEFEE726000200704700000146806ADD
:1015B000436D426D13F0500F08D0D20648BF00F0C3
:1015C0008DBAC06C426B0846104700BF42F40071F0
:1015D000416501680B68CA681B0711D491070CD4D8
:1015E000416D21F480714165416DC90448BF00F02F
:1015F00071BA416D41F00101416500F06BBA00BF65
:1016000012F4406FF9D1C9688904F6D4416D21F410
:1016100080714165416DC904EFD4416D41F0010114
:10162000416500F057BA0000806A416D41F0400109
:101630004165816D41F00401816500F04FBA000001
:10164000806A00F049BA000070B582B004460020FC
:10165000019021688A68D20773D14FF6C076C7F629
:10166000FF76886806F17F0210420BD0606D40F073
:1016700010006065A06D40F00100A065012002B07F
:1016800070BD00BF8868304040F00100886040F2C3
:101690000830C5F20400006800021DD400F028FDE7
:1016A00021680A68D20747D1054602E00868C007EA
:1016B00046D18868C00704D18868304040F00100F6
:1016C000886000F015FD401B21680328EED30868F0
:1016D000C007EBD1CAE700BF40F20800C2F2000029
:1016E000006842F663518009C0F23E51A0FB01013F
:1016F000880900EB40000C2101EB8000019001986B
:101700000028CBD001980138019001980028C5D05D
:1017100001980138019001980028BFD00198013844
:10172000019001980028B9D00198013801900198E2
:101730000028E7D1B2E700BF002002B070BD00BFB3
:10174000002002B070BD0000FEE7000070470000FE
:101750004FF4007000F0D0BBEFF3108072B600BF02
:10176000FEE7000070470000F0B581B00022009253
:1017700090F85020012A03D10221084601B0F0BDA3
:101780000123076880F85030BB685B070CD44B68B6
:10179000052B11D8023B032B0CD847F26C74C0F612
:1017A000000454F8233006E0416D41F0200141650A
:1017B000012180E106234B60C3F3012207EB820283
:1017C0000C68156B03F01F031F269E4025EA0606D2
:1017D000C4F3846505FA03F333431363BA68BB6843
:1017E000DB0843EA9202D20740F08B800A688B68DC
:1017F000C2F3406607EB86067569C2F304520724FC
:101800009440A54303FA02F22A437261D1E9043CF1
:10181000FC68042B60D13A6E3A6E0B68C2F38462A6
:1018200093FAA3F6C3F3846C6FF3DF43B6FA86F53D
:10183000002B2C464FF6FF7E08BF6446A242C0F242
:10184000070E0CD13A6E22F000423A660A6802EAAC
:101850000E03C2F3846C92FAA2F2B2FA82F57A6EA7
:101860007A6E002BC2F384622C4608BF6446A24203
:101870000CD17A6E22F000427A660A6802EA0E0300
:10188000C2F3846C92FAA2F2B2FA82F5BA6EBA6E20
:10189000002BC2F384622C4608BF6446A2420CD1DE
:1018A000BA6E22F00042BA660A6802EA0E03C2F378
:1018B000846C92FAA2F2B2FA82F5FA6EFA6E002BFA
:1018C000C2F3846208BF6546AA421AD1FA6E22F0BA
:1018D0000042FA6615E000BF06220E6807EB83039C
:1018E00002EA94021D6E4FF200040CFA02F2C0F2FA
:1018F000FF3406F0F846254032432A4342F00042C6
:101900001A66BA68D20750D10C68CA68D7F8B060B6
:1019100023466FF3DF4326EA030C4FF6FF7602F00F
:101920001805C0F20706EE4000252640C4F27F05E8
:1019300046EA0C06AA42C7F8B06036D193B194FAD1
:10194000A4F2B2FA82F2013202F01E03092B02F075
:101950001F0310D801229A4003EB430342EA0353CA
:1019600015E000BF012202EB946202F01E030A2B75
:1019700002F01F03EED3012200269A4003EB43033B
:10198000CFF6206606EB03531A4342F00073C3F30D
:10199000406607EB86068A687569C3F3045307241B
:1019A0009C40A5439A402A4372610C680021C8F20A
:1019B00008010C422ED040F2083EC5F2040EDEF8BB
:1019C00000300021CCF252718C4203F0E07C08BF61
:1019D00013F4000120D00021CCF684318C4208BFE2
:1019E00013F080711ED0AEF542718F424FF00001AE
:1019F00061D10122C8F20002944208BF13F48002B0
:101A000059D1DEF8001021F0E07141EA0C0141F4F7
:101A100080014DE000214EE0AEF542718F4207D0CB
:101A2000002148E0AEF542718F4239D0002142E0FA
:101A3000DEF8001042F6635221F0E07141EA0C0139
:101A400041F40001CEF8001040F20801C2F200019A
:101A50000968C0F23E528909A1FB0212910901EB0B
:101A600041010C2202EB81010091009951B30099D0
:101A700001390091009939B3009901390091009919
:101A800021B3009901390091009909B300990139F6
:101A90000091009900294FF00001E8D10BE000BF50
:101AA000DEF8001021F0E07141EA0C0141F0807194
:101AB000CEF800100021002280F85020084601B026
:101AC000F0BD00BF0021F6E70021F4E70021F2E7B6
:101AD0000021F0E7704700007047000070470000E9
:101AE000B0B582B00446002001904CB1606D58B191
:101AF00021688868800012D48868C00019D54CE03D
:101B0000012002B0B0BD00BF204600F0E7F8002081
:101B1000A06584F85000216888688000ECD588684A
:101B20004FF6C072C5F6FF72104088608868C0002A
:101B300033D44FF6C0728868C5F6FF7202F1805246
:101B4000104000F18050886040F20800C2F20000AE
:101B5000006842F663528009C0F23E52A0FB0202C6
:101B60009009022202EB400001900198A8B100BF49
:101B7000019801380190019878B1019801380190DD
:101B8000019850B1019801380190019828B101984D
:101B90000138019001980028EAD18868C00009D472
:101BA000606D40F010006065A06D40F00100A06520
:101BB000012000E000208A68636DC2F3800203F018
:101BC0001003D218626D05D042F01001012061654A
:101BD00002B0B0BD22F48172023262658A68D20717
:101BE00012D140F208324FF60053C5F20402CFF68C
:101BF000FF73D358DB0707D1D4F804C0136823F46C
:101C00007C1343EA0C031360627E636B43EA423247
:101C1000D4E902C31A4394F8203042EA0C02012BA3
:101C200042EA034207D1D4F824C00023CFF6FE7362
:101C300003EB4C431A43A36A33B103F47073D4F833
:101C40002CC01A4342EA0C02D1F80CC04CF2070334
:101C5000CFF6F07303EA0C031A43CA608A688B68F4
:101C6000DB0843EA9202D20727D194F83030227E73
:101C70005B0094F838C043EA823ECB6844F202022B
:101C800023EA020242EA0E02CA600A69BCF1010FAD
:101C900010D140F2FD7322EA030CD4E90F32D4E9EB
:101CA00011E543EA0C031A4342EA0E022A4342F0CA
:101CB000010201E022F001020A6122690B6B012A94
:101CC00023F00F0202D1E369013B1A430A63616DFD
:101CD000012262F30101616502B0B0BD10B59EB092
:101CE000044600201D90CDE91B00CDE9190002A893
:101CF00020303C21FEF7A2FB20680021C5F2040140
:101D0000884201D01EB010BD4FF4804002904FF0C9
:101D10008050169003200390012004900820059025
:101D2000072006900220CDE907004FF0807009904F
:101D300002A800F0E3FA002818BFFFF70DFD41F2FA
:101D40004C00C4F20200016841F4005101600168D6
:101D500001F4005101910199016841F00401016011
:101D6000006819A900F00400019001980F20199053
:101D70000B201A9000201B9040F60000C4F60000D3
:101D800000F0C6F81EB010BD70B50446006880684B
:101D9000400703D494F85000012801D1022070BDFF
:101DA000012084F85000204615460E46FFF74CFCF3
:101DB00020B1002184F8501070BD00BF606D40F666
:101DC0000171884300F580706065606D41F2AD532C
:101DD000C0044FF0000044BFA06D20F00600A065D5
:101DE000E06C41F241612268C0F60003C0F60001D8
:101DF00041F2296E4FF0000CC0F6000EC0E90B3125
:101E00001C21C0F834E0116084F850C051682B46A2
:101E100041F010015160D16841F00101D16002F13F
:101E20004001324600F00AF821684FF6C0738A6814
:101E3000C7F6FF731A4004328A6070BDF0B590F89F
:101E400024C0BCF1010F36D04FF0010E80F824E021
:101E500090F825C0BCF1010F2AD14FF0020C80F898
:101E600025C04FF0000CC0F83CC0D0F800C084681A
:101E7000056B066CDCF80070102C27F00107CCF81D
:101E80000070406C00F01C000EFA00F07060084614
:101E9000CCF8043004BF10460A46CCF80800CCF851
:101EA0000C20DCF800004DB140F00E000EE000BF49
:101EB000002180F824100220F0BD00BF20F00400B3
:101EC000CCF80000DCF8000040F00A00CCF800007C
:101ED000DCF8000040F00100CCF800000020F0BD6C
:101EE000B0F5007F18BF704740F27000C2F20000EA
:101EF000012101707047000040F21441C4F2010159
:101F00000A68024214BF08607047FFF7E9BF00008B
:101F10002DE9F04F84B00C680190002C00F0E280B5
:101F2000019841F2000600F13842C4F600068E46E0
:101F30004FEAB2270721B04208BF0421042F4FF017
:101F400000054FF001074FF000064FF0000838BFC2
:101F50004FEAB2210091CDF808E00DE0DEF8004034
:101F600008F1010834FA07F106F1020607F101074A
:101F700005F1040500F0B680A7F1010A012000FA7E
:101F80000AF214EA0209E9D0DEF804C00CF0030BEF
:101F9000ABF10104012C17D8019874468168032322
:101FA000E468B3409943B4402143816041684FEAFB
:101FB000480E9143CCF3001202FA0AF20446D843C9
:101FC000114361600CE000BF0321B140019CC84394
:101FD000BBF1030FB64603D1B6464FF0030B23E027
:101FE000E168029B01409A68BBF1020F02FA0EF20F
:101FF00041EA0201E16017D16FF0030101EA5A01E1
:10200000214405F01C040F22D1F820C002FA04FB81
:102010001A692CEA0B0CA24042EA0C02019C0A62EB
:10202000D3F804C00CF0030B21680BFA0EF2014048
:1020300011432160DDF808E01CF4403F8ED041F2EE
:102040006000C4F20200016840F2004C41F001015E
:1020500001600168C4F2010C01F0010103910399D0
:102060002AF003014FF6084A6144CFF6FF7A05F0E3
:102070000C030F2051F80A2000FA03F40098A24341
:1020800000FA03F31A4341F80A20DCF80810DEF8DE
:10209000042041EA090340F20C40D40258BF21EA6F
:1020A0000903CCF80830C4F201000168940241EA47
:1020B000090358BF21EA09030360DCF80410940304
:1020C00041EA090358BF21EA0903CCF80430DCF8DF
:1020D0000010D20341EA090358BF21EA0903CCF8F2
:1020E00000303BE704B000F000B830BCBDE8C08F62
:1020F00040F6BC50C2F200000068704740F2000099
:1021000040F6BC51C2F20000C2F2000100780A6839
:10211000104408607047000080B5032000F08AF882
:102120000F2000F009F800281CBF012080BD00F03E
:102130002BF8002080BD000070B540F20006C2F20E
:1021400000063178E1B1044640F20800C2F2000016
:102150004FF47A720068B2FBF1F1B0FBF1F001F0DC
:102160007DF80F2C4FF0010508D838B94FF0FF303B
:1021700021460022002500F031F87460284670BD29
:102180000125284670BD000082B041F25800C4F21B
:102190000200816841F001018160816801F0010164
:1021A00001910199016841F080510160006800F0DF
:1021B00080500090009802B070470000002848BF8F
:1021C000704700F01F01012202FA01F14EF20012E5
:1021D0004009CEF2000242F82010704710B54EF6CA
:1021E0000C5CCEF2000CDCF80030C3F3022E8EF053
:1021F0000704042C28BF0424BEF103034FF0FF3E64
:102200000EFA04F438BF0023A14399400EFA03F3F9
:102210009A4300F00F03043B1143634409010C335C
:1022200000F16042B0F1FF3FC8BF02F5644319708E
:1022300010BD00004EF60C51CEF200010A684FF6B8
:10224000FF031A4060F30A2242F0806040F0FD7004
:102250000860704747F20001C4F200010A68B0F557
:10226000007F02F4C06037D1B0F5007F31D008683C
:10227000012262F34A20086040F20800C2F2000026
:102280000068322250434DF68362C4F21B32A0FB39
:102290000202900C4A69431C18BF12F4806213D0EA
:1022A0004A69002818BF12F480620DD04A690128DB
:1022B00018BF12F4806207D04A69022804D012F4D1
:1022C0008062A0F10400E5D14869400544BF0320C5
:1022D00070470020704700BFB0F5806FF9D00868E4
:1022E000022262F34A2008600020704747F2000093
:1022F000C4F20000006800F4C06070472DE9F043AC
:1023000081B00446407841F288070007C4F2020712
:1023100021D5606C80B1B0F5400F15D0B0F5000F3D
:1023200040F02A8157F87C0C40F4803047F87C0C50
:102330004FF400000AE000BF201D002102F0E4FC81
:10234000814650B9606C01E04FF44000396821F4D7
:102350004001084338604FF00009A078800751D54C
:1023600057F8300C10F080580BD157F8300C40F073
:10237000805047F8300C57F8300C00F08050009037
:10238000009847F20005C4F20005286840F4807008
:102390002860FFF7ADFE06462868C00508D4FFF7A1
:1023A000A7FE801B0228F7D94FF0030921E000BFE8
:1023B000B9F1000F1DD1B86810F4407011D0A16DB3
:1023C00088420BD0B868B96820F4407041F480317D
:1023D000B960B96821F48031B960B860C00740F0D5
:1023E000D380B868A16D20F4407008434FF0000915
:1023F000B860B8F1000F05D157F8300C20F08050CC
:1024000047F8300C2168C80712D1880718D448074C
:102410001ED4880624D488052AD4480530D448061A
:1024200036D408063CD4C80542D4080348D459E041
:102430003868226A20F00300104338608807E6D528
:102440003868626A20F00C00104338604807E0D515
:102450003868A26A20F03000104338608806DAD568
:102460003868E26A20F44060104338608805D4D5AB
:102470003868E26B20F44020104338604805CED520
:102480003868226C20F44010104338604806C8D5E4
:102490003868226B20F44050104338600806C2D5DB
:1024A0003868626B20F4404010433860C805BCD5E2
:1024B0003868A26B20F4403010433860080311D50F
:1024C0003A68A06C22F040620243B0F1806F3A603B
:1024D0001ED0B0F1006F05D157F87C0C40F480108D
:1024E00047F87C0C480327D53A68E06C22F040623C
:1024F0000243B0F1806F3A6016D0B0F1006F1BD18B
:1025000057F87C0C40F4801047F87C0C14E000BFB6
:10251000201D012102F0F8FB2168002818BF814628
:102520004803E1D408E000BF201D012102F0ECFBCC
:102530002168002818BF8146480410D53868226DEC
:1025400020F040501043B2F1805F386007D1201D69
:10255000022102F0D9FB2168002818BF8146080437
:1025600005D53868616D20F08040084338604846E2
:1025700001B0BDE8F08300BF4FF00109A0788007EB
:102580003FF5EEAE3EE700BFFFF7B2FD064641F273
:1025900088354FF0030900BFB86880073FF521AFC9
:1025A000FFF7A6FD801BA842F6D922E72DE9F043EC
:1025B00081B000286BD042F20008C4F20208044641
:1025C000D8F800000D4600F0070088420CD2D8F879
:1025D000000020F007002843C8F80000D8F80000E9
:1025E00000F00700A84252D1206841F2080910F01B
:1025F0000201C4F202090DD0A268D9F8003003F03C
:10260000F0039A4206D9D9F8003023F0F0031A43B8
:10261000C9F80020C2072DD169B1A168D9F80020FE
:1026200002F0F002914206D2D9F8002022F0F00226
:102630001143C9F80010D8F8001001F00701A942B1
:102640000CD9D8F8001021F007012943C8F8001070
:10265000D8F8001001F00701A94218D141071BD496
:10266000000723D4D9F80000D9F8041010F00C00AA
:102670002CD131E0606800285ED0022800F07E8016
:10268000032840F0818059F8081C890158D40120A2
:1026900001B0BDE8F08300BFD9F80010E26821F472
:1026A000E0611143C9F800100007DBD5D9F800003C
:1026B000216920F4605040EAC100C9F80000D9F84F
:1026C0000000D9F8041010F00C0005D00C2829D116
:1026D00001F00301012925D159F8081C090703D489
:1026E000D9F88C10090A02E059F8081C090947F2C8
:1026F0003C7201F00F01C0F6000252F821100028D0
:102700000A4618BF00220C2871D1D9F8040000F045
:102710000300022846D0032804BF41F20021C0F282
:102720007A0143E0042857D008285BD141F2002207
:10273000C0F27A025BE000BF59F8081C8907A6D5F1
:10274000D9F8001021F003010843C9F80000FFF791
:10275000CFFC064641F28837D9F80000616800F0E6
:102760000C00B0EB810F15D0FFF7C2FC801BB84204
:10277000F2D9032001B0BDE8F08300BF59F8081C6E
:1027800089037FF584AFDBE759F8081C49057FF51D
:102790007EAFD5E7206800F0020100297FF43DAF4D
:1027A00049E700BF42F20041C0F2F401D9F8040049
:1027B000D9F80420C0F30210C2F306225143D9F81D
:1027C00004200130B1FBF0F0C2F34161022202EBC0
:1027D0004101B0FBF1F20AE042F20042C0F2F40221
:1027E00005E000BF002200210C283FF48EAFD9F88D
:1027F000000047F22471C0F30310C0F60001085C2A
:1028000000F01F0022FA00F140F20400C2F20000C2
:1028100040F208020068C2F20002116001B0BDE897
:10282000F043FFF789BC000040F2080041F20801C4
:10283000C2F20000C4F202010068096847F2347273
:10284000C1F30221C0F60002515C01F01F01C84033
:102850007047000040F2080041F20801C2F2000097
:10286000C4F202010068096847F23472C1F3C22160
:10287000C0F60002515C01F01F01C8407047000023
:1028800041F20C01C4F2020151F8040C10F00C02E8
:10289000086805D00C2A29D100F00300012825D1B1
:1028A00051F80C0C000703D4D1F88800000A02E0AC
:1028B00051F80C0C000947F23C7300F00F00C0F611
:1028C000000353F82030002A184618BF00200C2AB5
:1028D00018BF7047086800F00300022810D00328D2
:1028E00004BF41F20023C0F27A030DE0042A1FD096
:1028F000082A23D141F20020C0F27A00704700BFBD
:1029000042F20043C0F2F40308680A68C0F3021000
:10291000C2F30622096801305A43B2FBF0F0C1F35A
:102920004161022202EB4101B0FBF1F0704700BFB0
:1029300042F20040C0F2F400704700BF00200023C4
:10294000C5E700002DE9F04383B0002800F038838C
:1029500041F200060446C4F20206B068F16822782B
:1029600000F00C09D00601F003081DD42078C00740
:1029700000F08180B9F1080F76D0B9F10C0F08BFD3
:10298000B8F1030F70D06068B0F5803F07D0B0F5A4
:10299000A02F40F04B82306840F4802030603068D7
:1029A00040F4803030604CE2B9F1000F1ED0B9F134
:1029B0000C0F08BFB8F1010F18D0A16930680029C9
:1029C00000F0968140F001003060FFF791FB054672
:1029D0003068800700F19E81FFF78AFB401B0228C8
:1029E0004FF00300F4D903B0BDE8F08330688007EE
:1029F00003D5A069002800F0E382256A306800074B
:102A000000F13E81D6F89400000900F0F000854204
:102A100000F23C813068B9F1000F40F008003060EE
:102A2000306820F0F00040EA050030607068E1692D
:102A300020F47F4040EA0120706040F0AF82B06D2A
:102A4000C00000F14B82B06D40F08050B065B06DB9
:102A500000F0805002900298FFF748FCB16D21F021
:102A60008051B1653CE200BF3068800303D56068E7
:102A7000002800F0A582207880072DD5B9F1040F39
:102A80001CD0B9F10C0F08BFB8F1020F16D0E168E5
:102A90003068002900F0E48140F480703060FFF776
:102AA00027FB0546306840050FD4FFF721FB401B8C
:102AB00002284FF00300F5D995E700BF30684005C4
:102AC00003D5E068002800F07B827068216920F05F
:102AD000F85040EA016070602078000760D42078E8
:102AE000400775D42078800600F1AE80A06A0028E7
:102AF00000F00C83022840F01F81F068E16A00F0CA
:102B000003028A4240F03081226B6FF00F0300F025
:102B1000700103EB0212914240F02681616B00F4D8
:102B2000FE42B2EB012F40F01F81A16B00F0784212
:102B3000B2EBC16F40F01881E26B0023CFF6E07377
:102B400003EB025200F4C0016FF31402914240F013
:102B50000B81216C4FF07E4202EB016100F0C060FE
:102B600001F07E41884240F0FF803068800100F132
:102B7000CD82306840F080703060F06840F0807046
:102B8000F060FFF7B5FA04463068800100F1BE82BC
:102B9000FFF7AEFA001B02284FF00300F4D922E73A
:102BA0006169D6F89400002900F08C8040F00100A3
:102BB000C6F89400FFF79CFA054600BFD6F89400CB
:102BC00080078CD4FFF794FA401B0228F6D929E13C
:102BD000B06D10F0805808D1B06D40F08050B065F5
:102BE000B06D00F080500090009847F20007C4F2EA
:102BF00000073868C00513D4386840F48070386026
:102C0000FFF776FA054600BF3868C00508D4FFF71D
:102C10006FFA401B02284FF00300F5D9E3E600BF2E
:102C2000A068012808D0052840F0DE80D6F8900082
:102C300040F00400C6F89000D6F8900040F0010083
:102C4000C6F89000DFE000BF616AD6F8980000295E
:102C500000F0B48040F00100C6F89800FFF748FA91
:102C6000054600BFD6F8980080073FF53FAFFFF755
:102C70003FFA401B02284FF00300F3D9B3E600BF30
:102C8000306800F0F00085427FF6C4AEB06DC00041
:102C900000F18680B06D40F08050B065B06D00F0FE
:102CA000805001900198FFF721FBB16D21F0805118
:102CB000B165B0F5007F79D0802D40F2E38003202C
:102CC000EBE000BF20F00100C6F89400FFF710FA17
:102CD000054600BFD6F8940080077FF500AFFFF7E8
:102CE00007FA401B02284FF00300F3D97BE600BF30
:102CF00020F001003060FFF7FBF9054630688007DF
:102D00007FF534AEFFF7F4F9401B02284FF00300C3
:102D1000F4D968E6306840F0080030603068D4E9E3
:102D2000072120F0F00008433060706820F47F40F5
:102D300040EA0220706019E6B9F10C0F00F0408102
:102D4000306820F080703060FFF7D2F9044600BF91
:102D50003068800140F1EE80FFF7CAF9001B0228BD
:102D60004FF00300F4D93EE6B9F10C0F00F02881D2
:102D70003068400100F12481306820F080703060BC
:102D8000FFF7B6F905463068800140F18181FFF711
:102D9000AFF9401B02284FF00300F4D923E600BF2F
:102DA000FFF7A4FAB0F5007F7FF486AF812D73D3CF
:102DB0000120A02D88BF02206FE000BF20F001009D
:102DC000C6F89800FFF794F9054600BFD6F89800BA
:102DD00080077FF58BAEFFF78BF9401B02284FF081
:102DE0000300F3D9FFE500BFD6F89010002821F0CA
:102DF0000101C6F89010D6F8901021F00401C6F831
:102E0000901000F07B80FFF773F9054641F2883798
:102E1000D6F89000800700F18380FFF769F9401B26
:102E2000B842F5D9032003B0BDE8F083316800282B
:102E300021F480313160316821F48021316000F06B
:102E40008580FFF755F90546306880033FF513AEDE
:102E5000FFF74EF9401B64284FF00300F4D9C2E598
:102E600020F480703060FFF743F905463068400574
:102E70007FF532AEFFF73CF9401B02284FF003000C
:102E8000F4D9B0E5A5F17000B0FA80F04009802DCA
:102E900008BF022001E000BF002042F20001C4F29E
:102EA00002010A6822F0070202440A60096801F080
:102EB0000701814240F08480306840F008003060B3
:102EC0003068D4E9072120F0F000084330607068D2
:102ED00020F47F4040EA022070605FE0FFF706FACE
:102EE000B0F5007F06D1812D40D30120A02D88BFF1
:102EF000022045E0802D3BD9032041E0FFF7F8F8A0
:102F0000054641F28837D6F89000800708D5FFF7CC
:102F1000EFF8401BB8424FF00300F4D963E500BF5F
:102F2000B8F1000F7FF4DEADB06D20F08050B065D9
:102F3000D8E500BFF0684FF6FC71CFF6EE610840AF
:102F4000F060002003B0BDE8F08300BFFFF7D0F8C9
:102F50000546306880037FF58EADFFF7C9F8401B4A
:102F600064284FF00300F4D93DE500BF002007E0DE
:102F7000A5F17000B0FA80F04009802D08BF022052
:102F800042F20001C4F202010A6822F00702024480
:102F90000A60096801F00701814211D1B068F16847
:102FA00010F00C0005D00C282AD101F003010129F2
:102FB00026D13168090707D4D6F89410090A05E02C
:102FC000012003B0BDE8F0833168090947F23C7283
:102FD00001F00F01C0F6000252F8211000280A4645
:102FE00018BF00220C2837D1F06800F00300022837
:102FF00010D0032804BF41F20021C0F27A010DE095
:1030000004281FD0082823D141F20022C0F27A02FE
:1030100022E000BF42F20041C0F2F401F068F26821
:10302000C0F30210C2F306225143F2680130B1FB33
:10303000F0F0C2F34161022202EB4101B0FBF1F278
:103040000AE000BF42F20042C0F2F40204E000BF16
:10305000002200210C28C7D0B06847F22471C0F3C9
:103060000310C0F60001085C00F01F0022FA00F116
:1030700040F20400C2F2000040F208020068C2F20E
:1030800000021160FFF758F800287FF4ACAC6DE443
:10309000F06848F28C01C0F29D1104F12C0700EA9F
:1030A000010C8ECF6FF00F00D4E90F5400EB02102B
:1030B0000022CFF6E07241EA0C0102EB0552084310
:1030C0006FF314024FF07E4540EA032005EB0465E0
:1030D000104305F07E4540EAC7602843F060306841
:1030E00040F080703060F06840F08070F060FEF773
:1030F000FFFF04463068800108D4FEF7F9FF001B8B
:1031000002284FF00300F5D96DE400BF002003B0A2
:10311000BDE8F083002804BF01207047B0B5044625
:10312000406A28B10020206104F1140006E000BFCD
:103130006068B0F5827F03D004F11C0000210160BB
:103140000025A56294F85D0020B9204684F85C5003
:1031500000F04EF8022084F85D002068D4F80CE0FE
:103160000268BEF5E06F22F0400202604EF4006299
:1031700098BF0125B2F5706F1CBF0023A3624FEA10
:10318000053CD4E90135D4E9042103F4827305F444
:1031900004452B4402F002021A44A36901F0010124
:1031A000E569114403F40072114405F03802256A00
:1031B000114405F08002A56A114405F40052114340
:1031C00001600421626A0EF4706501EA1341636BC9
:1031D00045EA0C0502F01002294303F008031143ED
:1031E0001943416000200121206684F85D10B0BDC4
:1031F00080B586B0006843F60001C4F20001884241
:1032000002D006B080BD00BF41F24C00C4F2020003
:10321000C16841F48041C160C16801F480410191FD
:103220000199016841F002010160006801A900F004
:103230000200019001984FF4884001900220029012
:1032400000200390032004900520059040F20040E8
:10325000C4F60000FEF75CFE06B080BD411E0020F3
:10326000B0EB116F1CBF012070474EF21002CEF27E
:10327000000251604EF62351CEF20001F0230B7094
:103280000721906011607047704700007047000090
:103290007047000010B590F83C20012A04BF0220BE
:1032A00010BDD1E90232D1E900CE22F47C5223F4E0
:1032B00070531A4348F2FF73CFF6F07303EA0E031C
:1032C00042EA030E0A692CF477234EEA030C22F437
:1032D00076224B6942EA0C021A438B6A22F474226A
:1032E00023F4702342EA030C8B69D0F800E042F625
:1032F0000042C4F2010296454CEA03430FD123F089
:103300007C72D1E9073C496A0024CFF6F04404EA14
:103310000151114323F00072114341EA0C030021D3
:10332000CEF8443080F83C10084610BD10B590F837
:103330003C20012A4FF002022AD080F83D2002688A
:1033400042F6004C5368D2F808E0C4F2010C624522
:1033500003D14C6823F4700323430C6823F07003FB
:103360002343B2F1804F536007D044F20003C4F20C
:1033700001039A4201D0624504D189682EF080038E
:10338000194391600121002280F83D1080F83C2013
:10339000104610BD41B1082910D0042914BF00F116
:1033A000470200F145020BE090F84420012A1CBFBF
:1033B00001207047022280F8442013E000F1460209
:1033C0001278012A1CBF012070470222082907D069
:1033D000042914BF80F8472080F8452002E000BF90
:1033E00080F84620026801F01F000421136A01FAE8
:1033F00000F023EA00011162116AB2F1804F40EA45
:1034000001001062506C40F4004050640BD044F254
:103410000000C4F20100824205D042F60040C4F22E
:103420000100824212D190680721C0F201010140DF
:1034300006294FF000000ED0B1F5803F08BF70475D
:10344000106840F00100106000207047106840F0E4
:103450000100106000207047002804BF0120704761
:10346000B0B5044690F83D0028B9002084F83C002F
:10347000204600F063F8022084F83D00206842F600
:10348000004E0268C4F2010E704502D0B0F1804FC8
:1034900003D1A36822F070021A4343F6FF73C4F20B
:1034A000010344F2004C9842C4F2010C06DCB0F176
:1034B000804F0BD0704509D00CE000BF604505D0AF
:1034C00044F20003C4F20103984203D1236922F4B9
:1034D00040721A43A16922F080026368E5681143D3
:1034E00070450160C562836218BF60451ED1616985
:1034F000016301214161002084F8481084F83E10E6
:1035000084F83F1084F8401084F8411084F8421089
:1035100084F8431084F8441084F8451084F8461069
:1035200084F8471084F83D10B0BD00BF44F200019C
:10353000C4F201018842DCD1D9E7000080B582B035
:10354000006842F60041C4F2010188421CBF02B08B
:1035500080BD41F26000C4F202000168002241F423
:10356000006101600068002100F400600190019892
:103570001820FEF733FE182002B0BDE88040FEF7A9
:103580001DBE000080B590F83C20012A4FF00202D9
:1035900000F0C28080F83D20D0F800C08822DCF81E
:1035A0000830CFF6FE721A40CCF808200B684F2B7B
:1035B00028DC1F2B44DD202B45D0302B43D0402B63
:1035C00040F0AC80D1F804E0C968DCF82030DCF8C9
:1035D000202022F00102CCF82020DCF8182022F074
:1035E000F00242EA011123F00A0242EA0E02CCF88C
:1035F0001810CCF82020DCF8081041F0470121F029
:10360000300180E06F2B27DDB3F5005F48D0B3F5C4
:10361000805F7AD0702B40F08180D1E901E3C968E6
:10362000DCF8082043EA0E0322F47F4243EA01213A
:103630001143CCF80810DCF8081041F0770162E083
:103640000BB1102B6AD1DCF8081021F0700119437E
:1036500041F0070157E000BF502B35D0602B5DD102
:10366000D1F804E0C968DCF8203023F01003CCF86E
:103670002030DCF81830DCF8202023F4704322F0EE
:10368000A00243EA013142EA0E12CCF81810CCF83D
:103690002020DCF8081041F0670121F0100132E031
:1036A000D1E901E3C968DCF8082043EA0E0322F4FB
:1036B0007F4243EA01211143CCF80810DCF80810DE
:1036C00041F480411FE000BFD1F804E0C968DCF894
:1036D0002030DCF8202022F00102CCF82020DCF899
:1036E000182022F0F00242EA011123F00A0242EA15
:1036F0000E02CCF81810CCF82020DCF8081041F0AD
:10370000570121F02001CCF808100022012180F897
:103710003D10002180F83C10104680BD0122F5E7E5
:10372000B0B540F29005C2F2000505F10804A042D0
:1037300020D195F82400012818BFB0BD20460021F3
:1037400000F0E2FEB0F57A7F06D92046002100F0B5
:10375000DBFE286001E000BF286803F03BFC9FED22
:10376000060B02460B4651EC100B03F093FA03F0E4
:10377000B7F96860B0BD00BF0000000080842E4132
:10378000F0B590F83C30012B04BF0220F0BD4FEAA9
:10379000B202032A00F28880DFE802F002224060D1
:1037A0000368D1E900C5D1F80CE01A6AB3F1804F83
:1037B00022F001021A621A4652F8186F1C6A0BD0E6
:1037C00044F20007C4F20107BB4205D042F60047AD
:1037D000C4F20107BB426DD126F0030635436BE00E
:1037E0000368D1E900E6D1E902C11A6A360222F083
:1037F00010021A621A4652F8184F4FF2FF071D6A5C
:10380000BE4324F4734461F30F3646EA040125F005
:10381000A0040EF00A0744EA07173CE00768D1E964
:1038200000C5D1E902313A6A61F3071522F48072CA
:103830003A623A4652F81C4F3E6A24F0F30445EAD5
:10384000040126F420660CF00A0546EA05261160FC
:103850003E62116821F00C0111603BE00368D1E980
:1038600000E6D1E902C11A6A360222F480521A62D5
:103870001A4652F81C4F4FF2FF071D6ABE4324F44C
:10388000734461F30F3646EA040125F420440EF038
:103890000A0744EA073711601F6211684FEA0C23D8
:1038A00021F44061116015E00121002280F83C20E4
:1038B0000846F0BD46F0010524F00A070CF00A06A0
:1038C0006EF3071537449D611F629F6927F00C074F
:1038D0009F618B681168194311600021002280F8F4
:1038E0003C200846F0BD0000002804BF01207047BE
:1038F000B0B5044690F83D0028B9002084F83C009B
:10390000204600F063F8022084F83D00206842F66B
:10391000004E0268C4F2010E704502D0B0F1804F33
:1039200003D1A36822F070021A4343F6FF73C4F276
:10393000010344F2004C9842C4F2010C06DCB0F1E1
:10394000804F0BD0704509D00CE000BF604505D01A
:1039500044F20003C4F20103984203D1236922F424
:1039600040721A43A16922F080026368E56811433E
:1039700070450160C562836218BF60451ED16169F0
:10398000016301214161002084F8481084F83E1051
:1039900084F83F1084F8401084F8411084F84210F5
:1039A00084F8431084F8441084F8451084F84610D5
:1039B00084F8471084F83D10B0BD00BF44F2000108
:1039C000C4F201018842DCD1D9E7000010B586B00D
:1039D000006844F20001C4F2010188424FF0000186
:1039E0000591CDE90311CDE901111DD0B0F1804F52
:1039F00046D141F24C00C4F20200C1681C2441F0DF
:103A00000101C160C16801F00101009100990168E4
:103A100041F001010160006800F001000090009891
:103A2000012001901AE000BF41F24C00C4F20200F4
:103A30004169182441F480314161416901F48031C8
:103A400000910099016841F001010160006800F0F7
:103A5000010000900098042001900E200221CDE981
:103A60000211CDE9041001A94FF09040FEF750FA81
:103A7000204600210022FEF7B1FB2046FEF79EFB08
:103A800006B010BD80B589B10A1F4FEAB20EBEF173
:103A9000030F3DD8DFE80EF002161E2600F13F02AC
:103AA00092F800C0082939D122E000BF90F83E20EA
:103AB00090F84430012A4FF0010208BF012B1BD0BF
:103AC000104680BD00F1400292F800C0082925D1BF
:103AD0000EE000BF00F1410292F800C008291DD19C
:103AE00006E000BF00F1420292F800C0082915D19B
:103AF00000F1460218E000BF022280F83E2080F864
:103B000044204FEAB103032B4FF00102D8D856E00E
:103B100000F1430292F800C00829E9D0042914BF3B
:103B200000F1470200F145021378BCF1010F4FF09C
:103B3000010208BF012BC3D1BEF1030F0CD8DFE88F
:103B40000EF003131B2F00BF022280F83F20022239
:103B5000082917D12AE000BF022280F84320022260
:103B600008290FD122E000BF022280F84020022263
:103B7000082907D11AE000BF022280F84120022262
:103B8000082913D0042914BF80F8472080F8452065
:103B90004FEAB103032B4FF001023FF691AF0EE065
:103BA000022280F8422002220829EBD180F8462028
:103BB0004FEAB103032B4FF001023FF681AF47F20A
:103BC0007C7C0068C0F6000C5CF823C0C36801F080
:103BD0001F0143EA0C03C360036A02FA01F123EAFE
:103BE00001020262026AB0F1804F41EA0201016201
:103BF0000BD044F20001C4F20101884205D042F624
:103C00000041C4F20101884214D181680722C0F248
:103C10000102114006294FF000023FF451AFB1F507
:103C2000803F3FF44DAF016841F001010160002089
:103C300080BD00BF0168002241F001010160104613
:103C400080BD000010B5016804460869800744BFC4
:103C5000C8685FEA80703FD40869400744BFC868FD
:103C60005FEA407044D40869000744BFC8685FEA4F
:103C700000704BD40869C00644BFC8685FEAC060E2
:103C800050D40869C0071CBFC8685FEAC07057D12C
:103C90000869000644BFC8685FEA006058D4086934
:103CA000C00544BFC8685FEA006059D4086940068F
:103CB00044BFC8685FEA40605AD40869800646BFBE
:103CC000C8685FEA806010BD6FF0200220460A617C
:103CD000BDE81040FFF7DCBA6FF002000861012078
:103CE0002077886980074BD02046FFF719FD4DE00B
:103CF0006FF00400086102202077886910F4407F8B
:103D000048D02046FFF70CFD4AE000BF6FF00800E6
:103D1000086104202077C869800745D02046FFF756
:103D2000FFFC47E06FF01000086108202077C869A9
:103D300010F4407F42D02046FFF7F2FC44E000BF81
:103D40006FF001000861204600F0DCFB21689FE76E
:103D50006FF0800008612046FFF798FA21689EE71F
:103D60006FF4807008612046FFF78EFA21689DE7A6
:103D70006FF040000861204600F00CFC21689CE7D1
:103D8000204600F071F8204600F0B8FA21680020C3
:103D9000207761E7204600F067F8204600F0AEFA91
:103DA0002168002020775EE7204600F05DF820467D
:103DB00000F0A4FA2168002020775BE7204600F09D
:103DC00053F8204600F09AFA21680020207758E73F
:103DD000F0B585B0006842F60041C4F201018842A6
:103DE00002D005B0F0BD00BF41F24C00C4F20200A9
:103DF00001686C4641F0010101600168022501F093
:103E00000101009100990168002641F00201016062
:103E10000068012700F00200009000984FF4C07085
:103E200000904FF0904021460195CDE9026504973E
:103E3000FEF76EF840F20040C4F600002146CDE9DE
:103E40000055CDE902660497FEF762F84FF48060F2
:103E50008DE861004FF090402146CDE90367FEF701
:103E600057F805B0F0BD000070470000F0B590F8BD
:103E70003C30012B04BF0220F0BD4FEAB202052AFC
:103E80005CD8DFE812F007006100AF00FD003D01E3
:103E90007D0100BF036842F600461A6AC4F20106BB
:103EA00022F001021A621D6A1A465C6852F818CFA5
:103EB0008F68D1F800E025F00205B34245EA070516
:103EC0000BD044F20047C4F20107BB4205D044F2D4
:103ED0000007C4F20107BB4205D1CF6825F00C05ED
:103EE00027F004073D43B3420BD044F20046C4F22E
:103EF0000106B34205D044F20006C4F20106B34203
:103F000005D1D1E9056724F4407434433C434FF6AE
:103F10008C76CFF6FE760CEA060747EA0E075C6061
:103F20009F614F6809695F631D629F6947F00807D9
:103F30009F619F6927F004079F6162E101210022D0
:103F400080F83C200846F0BD036842F600461A6A35
:103F5000C4F2010622F010021A621F6A1A465C6857
:103F600052F818CF8D6827F02007B34247EA0515AD
:103F700008D125F0C00ECD686FF0400707EA05159F
:103F800045EA0E05D1F800E0B3420BD044F20046FA
:103F9000C4F20106B34205D044F20006C4F20106A1
:103FA000B34207D1D1E9056724F4406444EA8604AA
:103FB00044EA870448F6FF46CFF6FF660CEA060798
:103FC00047EA0E275C609F614F6809699F631D6225
:103FD0009F6947F400679F619F6927F480679F612D
:103FE0000EE100BF036842F600461A6AC4F20106F9
:103FF00022F480721A621F6A1A465C6852F81CCF5B
:104000008D6827F40077B34247EA052509D1CF68C8
:1040100025F4406E3F0240F2FF4527EA050545EAD8
:104020000E05D1F800E0B3420BD044F20046C4F2D2
:104030000106B34205D044F20006C4F20106B342C1
:1040400007D1D1E9056724F4405444EA061444EA50
:1040500007144FF68C76CFF6FE760CEA060747EA91
:104060000E075C60DF614F680969DF631D62DF690D
:1040700047F00807DF61DF6927F00407DF61C0E070
:10408000036842F600471A6AC4F2010722F480521C
:104090001A621A461C6A5D6852F81CCFD1F800E01B
:1040A0008E68BB420BD044F20047C4F20107BB420A
:1040B00005D044F20007C4F20107BB4204D14F69A6
:1040C00025F4804545EA871524F4005444EA063473
:1040D00048F6FF46CFF6FF660CEA060747EA0E27CA
:1040E0005D60DF614F6809691F641C62DF6947F426
:1040F0000067DF61DF6927F48067DF6180E000BF70
:10410000036842F600471A6AC4F2010722F48032BB
:104110001A621A461C6A5D6852F854EFD1F800C062
:104120008E68BB420BD044F20047C4F20107BB4289
:1041300005D044F20007C4F20107BB4204D14F6925
:1041400025F4803545EA072524F4003444EA064482
:104150004FF68C76CFF6FE7603360EEA060747EA70
:104160000C075D605F654F6809699F651C625F6D44
:1041700047F008075F655F6D27F004075F6540E063
:10418000036842F600471A6AC4F2010722F480125B
:104190001A621A461C6A5D6852F854EFD1F800C0E2
:1041A0008E68BB420BD044F20047C4F20107BB4209
:1041B00005D044F20007C4F20107BB4204D14F69A5
:1041C00025F4802545EA872524F4001444EA0654A2
:1041D00048F6FF46CFF6FF6606F540760EEA06077C
:1041E00047EA0C275D605F654F680969DF651C62FF
:1041F0005F6D47F400675F655F6D27F480675F65FB
:1042000009021368194311600021002280F83C2044
:104210000846F0BD002804BF01207047B0B5044631
:1042200090F83D0028B9002084F83C00204600F0BA
:1042300063F8022084F83D00206842F6004E0268D0
:10424000C4F2010E704502D0B0F1804F03D1A368D3
:1042500022F070021A4343F6FF73C4F2010344F2E2
:10426000004C9842C4F2010C06DCB0F1804F0BD038
:10427000704509D00CE000BF604505D044F2000352
:10428000C4F20103984203D1236922F440721A4315
:10429000A16922F080026368E568114370450160FE
:1042A000C562836218BF60451ED161690163012147
:1042B0004161002084F8481084F83E1084F83F10D3
:1042C00084F8401084F8411084F8421084F84310B8
:1042D00084F8441084F8451084F8461084F8471098
:1042E00084F83D10B0BD00BF44F20001C4F20101EA
:1042F0008842DCD1D9E700007047000040F6A041B9
:10430000C2F20001884218BF704740F27000C2F24A
:1043100000000278012A2CD1428840F2E80CC2F257
:10432000000C531C0CEB820290ED021A92ED002A55
:1043300090ED010A22EE012A30EE422ABDEEC22A99
:10434000096812EE102A43804A639AB20CEB82038A
:1043500093ED002AB2F5167F22EE011A30EE410AE3
:10436000BDEEC00A10EE103ACB6302BF00214180BF
:104370000170704761B10A1F4FEAB202032A17D8D1
:10438000DFE802F0021A1E2200F13F031EE000BF28
:1043900090F83E20012A1CBF01207047022280F8BD
:1043A0003E204FEAB103032B4FF0010241D84CE00D
:1043B00000F143030AE000BF00F1400306E000BF44
:1043C00000F1410302E000BF00F142031B78012B22
:1043D0001CBF01207047032A0ED8DFE802F0031744
:1043E000212D00BF022280F83F204FEAB103032BAA
:1043F0004FF001021DD828E0022280F843204FEA46
:10440000B103032B4FF0010213D81EE0022280F803
:1044100040204FEAB103032B4FF0010209D814E00A
:10442000022280F841204FEAB103032B4FF0010232
:104430000BD91046704700BF022280F842204FEA95
:10444000B103032B4FF00102F3D847F27C7C0068E4
:10445000C0F6000C5CF823C0C36801F01F0143EAFA
:104460000C03C360036A02FA01F123EA010202624B
:10447000026A114343F6FF72C4F2010290420162E4
:104480000ADCB0F1804F23D042F60041C4F20101B2
:1044900088420DD02EE000BF44F20041C4F2010179
:1044A000884205D044F20001C4F20101884221D1C2
:1044B000416C44F20002C4F2010241F40041904216
:1044C000416405D042F60041C4F20101884211D195
:1044D00081680722C0F20102114006294FF0000254
:1044E000A7D0B1F5803FA4D0016841F0010101607F
:1044F000002070470168002241F001010160104670
:1045000070470000704700004FEAB101032984BFE3
:1045100000207047DFE801F0020E060A0068343020
:104520000068704700683C300068704700684030A1
:10453000006870470068383000687047B0B50446BE
:1045400090F83C0001284FF0020008BFB0BD0125E3
:1045500084F83C5084F83D00206800F007FE0028F5
:104560004FF0010006D0002184F83D5084F83C1043
:10457000B0BD00BF2068C16821F04001C160C168C2
:1045800021F48041C1600020002184F83D5084F86E
:104590003C10B0BD70470000B0B582B0A0B1044679
:1045A000806F28B9002084F87400204600F056F887
:1045B0002420A0672068016821F0010101602046E5
:1045C00000F0B6FE012803D1012002B0B0BD00BF4B
:1045D000606A10B1204600F037FE2068416821F47F
:1045E00090414160816821F02A018160016841F0B9
:1045F000010101600020C4F88000FDF779FD216809
:1046000005460A6812070CD56FF07E4C20464FF421
:10461000001100222B46CDF800C000F0A7FF78B9AA
:104620002168086840070FD56FF07E4C20464FF494
:10463000800100222B46CDF800C000F097FF18B192
:10464000032002B0B0BD00BF2020A067E0670020BB
:10465000206684F8740002B0B0BD00002DE9F0417E
:104660009EB0044602A80025043058211D95CDE9CE
:104670001B55CDE91955FBF7E1FE206843F6000113
:10468000C4F20101884203D01EB0BDE8F08100BF32
:104690000120029002A80A95FDF730FE002818BFFD
:1046A000FDF75AF841F24C00C4F20200416919AC1E
:1046B00041F48041416141694FF0020801F48041B9
:1046C000019101990168002641F001010160016832
:1046D000032701F00101019101990168072541F0CB
:1046E000020101600068214600F00200019001987B
:1046F0004FF4007019904FF09040CDF868801B96F1
:104700001C971D95FDF704FC8020CDE9190840F2A7
:104710000040C4F600002146CDE91B671D95FDF75A
:10472000F7FB1EB0BDE8F0812DE9F04381B00446EF
:10473000806F20280BD10E4600294FF001005CD07D
:104740001746002A59D094F87400012804D1022099
:1047500001B0BDE8F08300BF012084F874004FF081
:10476000000921201D46C4F88090A067FDF7C0FC19
:10477000A4F85070A4F85270A1680746B1F5805FA4
:1047800008D1206900281CBF30464E46B046064678
:1047900002E000BF4FF0000884F8749009E000BF09
:1047A00016F8010B21680885B4F852000138A4F806
:1047B0005200B4F8520088B12046802100223B46C6
:1047C000009500F0D3FE88B9002EE9D138F8020B2D
:1047D00021686FF35F2008850026E5E72046402129
:1047E00000223B46009500F0C1FE18B1032001B045
:1047F000BDE8F0832020A067002001B0BDE8F08371
:10480000FEE70000B0B586B040F6D83000210024A5
:10481000C2F20000C5F2040101220425C0E900141F
:104820004FF48071CDE90444C0E90244C0E9042595
:104830000183C56180F82040C0E90A4480F8304017
:10484000446380F83840FDF74BF9002818BFFCF7A7
:1048500083FF0220C0F2304000900620CDE9010520
:104860007F20CDE9030540F6D830C2F2000069464A
:104870000594FCF779FF002818BFFCF76DFF0420B2
:10488000C0F6600000900C20019040F6D830C2F2D3
:1048900000006946FCF768FF002818BFFCF75CFFC2
:1048A0000820C0F6904000901220019040F6D830C9
:1048B000C2F200006946FCF757FF002818BFFCF75A
:1048C0004BFF1020C1F2C00000901820019040F66C
:1048D000D830C2F200006946FCF746FF002818BF36
:1048E000FCF73AFF06B0B0BD80B586B00020CDE938
:1048F000040041F24C00C4F20200016841F0800162
:104900000160016801F0800100910099016841F0A7
:1049100004010160016801F004010091009901683F
:1049200041F001010160016801F00101009100996D
:10493000016841F002010160006801A900F0020075
:10494000009000984FF4007001904FF40410029012
:104950000120039040F20040C4F60000FDF7D8FAB1
:10496000172000210022FDF739FC1720FDF726FC57
:1049700006B080BD80B540F63C4043F60001C2F26F
:104980000000C4F2000100224FF440734FF4007C99
:10499000C0E900120721C0E90223C0E90422C0F8DF
:1049A00018C0C0E90822C0E90A21C0E90C22FEF7BC
:1049B000B1FB002808BF80BDBDE88040FCF7CCBE3D
:1049C00010B58CB040F6EC4044F200010024C2F275
:1049D0000000C4F201014FF6FF734FF0800C069403
:1049E000CDE90444CDE90244CDE900444F2280E8FA
:1049F0001600C0E90334C0E9054CFEF775FF002836
:104A000018BFFCF7A9FE042007905020CDE9080448
:104A100040F6EC400A940A24C2F2000007A90B9465
:104A2000FFF78CFD002818BFFCF796FE002001213F
:104A30000390CDE9041040F6EC40C2F2000003A957
:104A400000220694FEF79CFE002818BFFCF784FEA7
:104A50000220CDE9030040F6EC40C2F2000003A9B9
:104A60000422FEF78DFE002818BFFCF775FE00201B
:104A70000090029040F6EC40C2F200006946FEF75A
:104A800055FC002818BFFCF767FE0CB010BD0000F5
:104A900010B59AB0002401A82C211994CDE917442F
:104AA000CDE91444CDE91244CDE91044CDE90E44DA
:104AB000CDE90C44FBF7C2FC40F6A04042F60041B1
:104AC000C2F20000C4F2010140F2E733072280E89D
:104AD0001600C0E90334C0E90544FEF7BDFC002818
:104AE00018BFFCF739FE4FF48050169040F6A040F6
:104AF000C2F2000016A9FEF745FD002818BFFCF71A
:104B00002BFE40F6A040C2F20000FFF783FB002816
:104B100018BFFCF721FE40F6A0400024C2F20000BE
:104B200013A9CDE913441594FEF700FC002818BF23
:104B3000FCF712FE6020CDE90C0440F6A040C2F262
:104B400000000CA90022CDE90E44CDE910441294D6
:104B5000FFF78CF9002818BFFCF7FEFD40F6A040D7
:104B6000C2F200000CA90822FFF780F9002818BF44
:104B7000FCF7F2FD00204FF40051CDE906104FF094
:104B800000710590CDE90300CDE901000890CDE961
:104B900009100B9040F6A040C2F2000001A9FEF7F8
:104BA00079FB002818BFFCF7D7FD40F6A040C2F201
:104BB0000000FFF70DF91AB010BD000070B58CB001
:104BC00040F29005C2F200054FF0804128460024D3
:104BD00040F8081F4F214FF0FF32C0E90114802137
:104BE0000694CDE90444CDE90244CDE90044C0E98E
:104BF00003248161FEF778FE002818BFFCF7ACFDA6
:104C0000042007905020CDE908040A9405F1080417
:104C10000A2607A920460B96FFF790FC002818BF2C
:104C2000FCF79AFD002001210390CDE9041003A9AF
:104C3000204600220696FEF7A3FD002818BFFCF7C9
:104C40008BFD0220CDE9030003A920460422FEF7D4
:104C500097FD002818BFFCF77FFD00200090029010
:104C600069462046FEF762FB002818BFFCF774FD7A
:104C70000CB070BD80B540F6385043F60001C2F26A
:104C80000000C4F2010100234FF00C0C4FF4E1329C
:104C900080E80E00C0E90333C0E905C3C0E907336B
:104CA0004362FFF779FC002808BF80BDBDE8804063
:104CB000FCF752BDFEE70000FEE700009FED0E1A74
:104CC0009FED0E2A81EE001A82EE000A42F62C4178
:104CD000C4F20101BDEEC11A11EE100A9FED081ACF
:104CE000086040F27000C2F2000020EE011A80ED70
:104CF000010A80ED021A7047563502465635824544
:104D0000F4FD343F70470000F0B581B041F2000778
:104D1000C4F20207FA680D469107044614D0F868F9
:104D2000216800F0030088424FF0010040F09D80B0
:104D3000002900F09A80F8686168C0F30210013021
:104D4000884232D134E000BF206803280CD002280A
:104D500016D0012829D13968012211F0020182EA16
:104D6000510116D120E000BF3968890310D4396899
:104D7000012211F4802182EA91410AD114E000BF9E
:104D80003968012211F4806182EA912101D10BE09E
:104D90000021FA68636822F073026FF00F0606EBD9
:104DA000031310431843F86011B1012001B0F0BDA6
:104DB000386820F080603860FDF79AF9064600BF39
:104DC0003868000106D5FDF793F9801B0228F7D952
:104DD00042E000BF012D0BD0E5B9386948F2FF0170
:104DE000C0F2FF710140D4E90220C00620E000BFFC
:104DF00048F2FF013869CFF6FF1101F1B4610140BB
:104E000020690023CFF6E073A26803EB00506FF334
:104E100014000DE0386948F2FF01CFF6FF110140A0
:104E200060694FF07E43A26803EB006000F07E40B3
:104E300041EA022108433861386840F080603860F8
:104E4000FDF756F9054600BF3868000108D4FDF7A4
:104E50004FF9401B0228F7D9032001B0F0BD00BF75
:104E6000A069396908433861002001B0F0BD000035
:104E700070470000000000002DE9F04381B02DEDE7
:104E8000028B9EB0B0EE408A9FED9D0B40F2E80091
:104E900059EC108B9FED9C0BC2F20000041F002503
:104EA00057EC106BA8B202F095F842464B4602F060
:104EB000A5F832463B4601F045FE41EC100B01F0EF
:104EC0003BF951EC100B01F00BFE0135B5F5167FE7
:104ED00044F8040FE6D141F24C06C4F202067069B0
:104EE00042F6004840F4006070617069002100F4EF
:104EF0000060009000981B200022C4F201080024EA
:104F0000FDF76CF91B20FDF759F968462C21189420
:104F1000CDE91644CDE91344CDE91144CDE90F4460
:104F2000CDE90D44CDE90B44FBF788FA9FED780AF3
:104F300040F6A04080EE080AC2F20000072140229D
:104F4000C0E90081C0E904448461BDEEC00A10EEEE
:104F5000109AC0E90229FEF77FFA002818BFFCF773
:104F6000FBFB4FF48050159040F6A040C2F20000C9
:104F700015A9FEF707FB002818BFFCF7EDFB40F66C
:104F8000A040C2F20000FFF745F9002818BFFCF767
:104F9000E3FB40F6A0400024C2F2000012A9CDE9D4
:104FA00012441494FEF7C2F9002818BFFCF7D4FB92
:104FB0006020CDE90B0440F6A040C2F200000BA92E
:104FC0000022CDE90D44CDE90F441194FEF74EFFC8
:104FD000002818BFFCF7C0FB40F6A040C2F200005A
:104FE0000BA90822FEF742FF002818BFFCF7B4FB0C
:104FF00000204FF4005140F6A044CDE905104FF0D9
:105000000071C2F200040490CDE90200CDE9000075
:105010000790CDE908100A9069462046FEF73AF954
:10502000002818BFFCF798FB2068404539D130684C
:1050300019AC40F0010030603068002500F001003C
:10504000199019983068012740F0020030603068EC
:10505000022600F00200199019984FF4C0701990C0
:105060004FF0904021461A96CDE91B561D97FCF74C
:105070004FFF40F20040C4F600002146CDE919661A
:10508000CDE91B551D97FCF743FF4FF48060CDE938
:1050900019064FF090402146CDE91B551D97FCF7AE
:1050A00037FF9FED1C0A9FED1C1A80EE080A40F2A4
:1050B000700040F6A044C2F20000C2F20004C8F83A
:1050C0002C90002120EE011A80ED010A80ED021AD9
:1050D0002046FFF74FF920460021FEF75BF92046F6
:1050E0000821FFF747F920460821FEF753F91EB0C3
:1050F000BDEC028B01B0BDE8F08300BF00BF00BF74
:105100007BE7C6C25472853F9C2D1592BF15803F28
:105110005635024656358245F4FD343FFCF7EEBF66
:105120004EF68850CEF20000016841F47001016033
:105130007047000080B540F6A040C2F20000FEF7C4
:1051400081FD40F6EC40C2F20000BDE88040FEF771
:1051500079BD000040F6A040C2F20000FEF772BD2B
:1051600040F29800C2F20000FEF76CBD10B58268F4
:105170004FF6887CCFF6FE7CD1E900E302EA0C040E
:105180000CF170021A40224342EA0E044FEA331235
:10519000072A84600AD84FF0000CDFE802F005050A
:1051A00005050B1F334700BF604610BD4FF0010CD3
:1051B000604610BDBEF1050F04BF012010BD026A9C
:1051C000036A23F0010303628369096923F0F00392
:1051D00043EA011181610262002010BD8A680969F9
:1051E000036A046A23F00A0324F001040462846958
:1051F0001A4324F0F00444EA0111816102620020A4
:1052000010BD00BF8A680969036A23F010030362B6
:105210008369046A23F4704343EA013124F0A00354
:1052200043EA021281610262002010BDD1E902232B
:10523000096984681A4324F47F4442EA0121214326
:105240008160002010BD000080B5416ACA070DD101
:105250008A0716D44A071FD40A0728D4CA0631D4AD
:105260008A063AD44A0658D542E000BF0268D0F810
:1052700028C0536823F4003343EA0C0353608A07C1
:10528000E8D50268D0F82CC0536823F4803343EA91
:105290000C0353604A07DFD50268D0F830C053686A
:1052A00023F4802343EA0C0353600A07D6D502682F
:1052B000D0F834C0536823F4004343EA0C0353602E
:1052C000CA06CDD50268D0F838C0936823F480535D
:1052D00043EA0C0393608A06C4D50268D0F83CC048
:1052E000936823F4005343EA0C0393604A0614D5F1
:1052F0000268D0F840C05368BCF5801F23F48013C7
:1053000043EA0C03536008D1D2F804C0D0F844E05B
:105310002CF4C00343EA0E035360090658BF80BD56
:105320000168806C4A6822F400221043486080BD06
:10533000B0B505462A69D5E9021300680A436969D0
:10534000D5F81CE01143026846F6F314CEF6FF745C
:1053500041EA0E01224011430160416848F2000C0D
:1053600021F4405119434160AA69C4F2000C604520
:105370001CBF296A0A438168102321F4306111435C
:10538000816047F6FF71C4F20001884212DC44F2EA
:105390000041C4F2000188421CD044F60001C4F26E
:1053A000000188422CD141F28801C4F2020109684F
:1053B0000B091DE0604515D043F60001C4F2010160
:1053C00088421DD141F28801C4F202010B6863A238
:1053D00012E000BF41F28801C4F2020109688B08A3
:1053E00006E000BF41F28801C4F2020109688B0A9D
:1053F00047F29C72C0F6000203F0030152F821301C
:10540000604542F20040C0F2F40015D0BEF5004FF6
:1054100022D1082B4FF0010100F29B80DFE803F05E
:10542000065864995C999999620000BFFDF7FCF9F0
:10543000002840F0598052E0082B4FF0010100F2A3
:105440008880DFE803F0058623861B868686210098
:10545000FDF7EAF9D0B914E0082B4FF0010100F292
:105460007880DFE803F0055965765D76767663002F
:10547000FDF7DAF900285BD155E000BFFDF700FA2F
:1054800020B9002165E000BF4FF400406A6802EBDC
:10549000420188424FF001015BD31303984258D870
:1054A000010E000210EB520041F100010023FAF757
:1054B00033FF4FF6FF42A0F54071C0F20F02914258
:1054C00004D82968C860002143E000BF012140E002
:1054D000FDF7C0F940B902E0FDF7D2F920B900218B
:1054E00037E000BF4FF4004069684A0802EB400013
:1054F000B0FBF1F04FF6EF72A0F11001914209D824
:105500004FF6F0710140C0F342002A680844D060B1
:1055100000211EE001211CE0FDF79CF940B902E0EA
:10552000FDF7AEF920B9002113E000BF4FF40040B1
:1055300069684FF6EF7200EB5100B0FBF1F0A0F19B
:105540001001914204D82968C860002101E000BF21
:105550000121002208466A66AA66B0BD010000006B
:105560000400000002000000080000002DE9F041E6
:10557000044600681546C2690E461140891BB1FAFF
:1055800081F14909A94240F09A80DDF81880B8F10C
:10559000000F27D018F101017AD100BFC169314055
:1055A000891BB1FA81F14909A94240F08880C1699B
:1055B0003140891BB1FA81F14909A94240F07F804D
:1055C000C1693140891BB1FA81F14909A94276D1FB
:1055D000C1693140891BB1FA81F14909A942DDD085
:1055E0006DE000BFFCF784FD206850E8000F2168E3
:1055F00020F4D07041E80002BAB3206850E8000FF0
:10560000216820F4D07041E8000272B3206850E8AD
:10561000000F216820F4D07041E800022AB320680E
:1056200050E8000F216820F4D07041E80002002A01
:10563000DAD11AE0206850E8020F216820F001005A
:1056400041E80202DAB1206850E8020F216820F038
:10565000010041E8020292B1206850E8020F21687F
:1056600020F0010041E802024AB1206850E8020F30
:10567000216820F0010041E80202002ADAD120204E
:10568000A067E067002084F874000320BDE8F08183
:105690001F4600BFFCF72CFDC01B4045A4D8206866
:1056A0000168490744BFC1695FEA01510AD4C06972
:1056B0003040801BB0FA80F04009A842EAD00020B8
:1056C000BDE8F0814FF40061016200BF50E8000FB7
:1056D000216820F4D07041E80002C2B3206850E88D
:1056E000000F216820F4D07041E800027AB32068EE
:1056F00050E8000F216820F4D07041E8000232B376
:10570000206850E8000F216820F4D07041E80002C2
:10571000EAB12068DAE700BF206850E8020F21688C
:1057200020F0010041E80202DAB1206850E8020FDF
:10573000216820F0010041E8020292B1206850E89F
:10574000020F216820F0010041E802024AB12068FE
:1057500050E8020F216820F0010041E80202002A0F
:10576000DAD12020A067E067C4F88000002084F828
:1057700074000320BDE8F081FEE7000083B010B59F
:1057800081B040F64824844603A8C2F200040EC04B
:1057900003AB20464FF4C87162460093FAF734FE1B
:1057A00082B240F63850C2F2000021460A23FEF7CA
:1057B000BBFF01B0BDE8104003B07047000000001F
:1057C0009AB0FCF7A9FC0020CDE91100CDE90F004B
:1057D000CDE90D00CDE90B000890CDE90600CDE93B
:1057E00004004FF40070FCF735FD28B1EFF3108092
:1057F00072B600BFFEE700BF0120032409904FF4FA
:105800008031CDE9144014200A910221169007201E
:10581000CDE9170109A813911991FDF793F828B163
:10582000EFF3108072B600BFFEE700BF0F20CDE996
:1058300004040020CDE90600089004A80421FCF728
:10584000B5FE28B1EFF3108072B600BFFEE700BFCF
:10585000FFF74AF8FEF7D6FFFFF7B0F9FFF7B0F809
:10586000FFF716F9FFF786F8FFF704FA40F20C008D
:10587000C2F2000090ED000AFFF7FEFA40F6D834BD
:10588000C2F200042046FCF725F940F27C09C2F27E
:10589000000909F10C0120460422FCF775FA40F2D8
:1058A0009800C2F200000021FEF7ECF89FED280BF3
:1058B00040F2940A51EC100B9FED270BC2F2000A44
:1058C00057EC10BB9FED260BCDE9021055EC104BA9
:1058D000DAF8000001F08AFD064640F2E400C2F268
:1058E00000000068884601F081FD41EC100B1EA00D
:1058F000324643468DED000BFFF740FF9AED000A5C
:10590000FFF7DCF9B9F80C0000EE100AB8EE400A17
:105910000120FBF727FF10EE100A89ED000A01F0C5
:1059200065FDDDE9023201F069FB01F0D9F8C9F843
:10593000040001F05BFD5A463B4601F05FFB224646
:105940002B4601F0FFF801F0CBF8C9F80800BFE7DB
:10595000B4D934E70C684A3F2449922449920C4058
:10596000B66DDBB66DDB20C025382E33662C2538AE
:105970002E33660D0A0000005FEA400C08BF91F06C
:10598000000F4FEA8C234FEAC12243EA51514FEAFC
:105990001C5018BF00F5F0404FEA300018BF41F02E
:1059A00000415FEA6C5C00F02980BCF1FF3F08BF5A
:1059B00040F080407047130C06BF12044FF0100CEB
:1059C0004FF0000C130E04BF12020CF1080C130F61
:1059D00004BF12010CF1040C930F04BF92000CF1F0
:1059E000020CD30F04BF52000CF1010C11464FF012
:1059F0000002A0F11F00A0EB0C00704711F0004F57
:105A000008BF704731F000413FF4D5AF0B0C06BF23
:105A100009044FF0100C4FF0000C0B0E04BF0902EC
:105A20000CF1080C0B0F04BF09010CF1040C8B0FD7
:105A300004BF89000CF1020CCB0F04BF49000CF12C
:105A4000010CCCF1200322FA03F341EA030102FA2C
:105A50000CF2A0EB0C0000F10100704723F07F472F
:105A600020F07F4C80EA030000F00040ACEB07031D
:105A700003F57C5303F1FF032DE9804909B44FEA94
:105A8000144324EA03484FEA154B25EA0B4E0FF264
:105A9000042606EB13273E7803FB0667C7F50007CD
:105AA00007FB06F64FEAD64606F102064FEA5437E0
:105AB00007FB066CCCF1005C4FEA1C472CEA074C54
:105AC0000CFB06F507FB06F404EB15464FEA9616A9
:105AD00049085FEA320234BF00204FF000404FEA2D
